{
  "_format": "hh3-artifact-1",
  "contractName": "SolivreKernel",
  "sourceName": "contracts/SolivreKernel.sol",
  "abi": [
    {
      "anonymous": false,
      "inputs": [
        {
          "indexed": true,
          "internalType": "bytes32",
          "name": "identityId",
          "type": "bytes32"
        },
        {
          "indexed": false,
          "internalType": "bytes32",
          "name": "root",
          "type": "bytes32"
        },
        {
          "indexed": true,
          "internalType": "address",
          "name": "controller",
          "type": "address"
        }
      ],
      "name": "IdentityRegistered",
      "type": "event"
    },
    {
      "anonymous": false,
      "inputs": [
        {
          "indexed": true,
          "internalType": "bytes32",
          "name": "identityId",
          "type": "bytes32"
        },
        {
          "indexed": false,
          "internalType": "bytes32",
          "name": "oldRoot",
          "type": "bytes32"
        },
        {
          "indexed": false,
          "internalType": "bytes32",
          "name": "newRoot",
          "type": "bytes32"
        }
      ],
      "name": "IdentityUpdated",
      "type": "event"
    },
    {
      "inputs": [
        {
          "internalType": "bytes32",
          "name": "",
          "type": "bytes32"
        }
      ],
      "name": "anchors",
      "outputs": [
        {
          "internalType": "bytes32",
          "name": "root",
          "type": "bytes32"
        },
        {
          "internalType": "uint64",
          "name": "createdAt",
          "type": "uint64"
        },
        {
          "internalType": "uint64",
          "name": "updatedAt",
          "type": "uint64"
        },
        {
          "internalType": "address",
          "name": "controller",
          "type": "address"
        }
      ],
      "stateMutability": "view",
      "type": "function"
    },
    {
      "inputs": [
        {
          "internalType": "bytes32",
          "name": "identityId",
          "type": "bytes32"
        },
        {
          "internalType": "bytes32",
          "name": "root",
          "type": "bytes32"
        }
      ],
      "name": "register",
      "outputs": [],
      "stateMutability": "nonpayable",
      "type": "function"
    },
    {
      "inputs": [
        {
          "internalType": "bytes32",
          "name": "identityId",
          "type": "bytes32"
        },
        {
          "internalType": "bytes32",
          "name": "newRoot",
          "type": "bytes32"
        }
      ],
      "name": "update",
      "outputs": [],
      "stateMutability": "nonpayable",
      "type": "function"
    }
  ],
  "bytecode": "0x6080604052348015600e575f5ffd5b506103ed8061001c5f395ff3fe608060405234801561000f575f5ffd5b506004361061003f575f3560e01c806313f57c3e146100435780632f92673214610058578063b01b6d531461006b575b5f5ffd5b610056610051366004610380565b6100fb565b005b610056610066366004610380565b61023d565b6100b86100793660046103a0565b5f60208190529081526040902080546001820154600290920154909167ffffffffffffffff80821692600160401b90920416906001600160a01b031684565b6040516100f2949392919093845267ffffffffffffffff9283166020850152911660408301526001600160a01b0316606082015260800190565b60405180910390f35b5f8281526020819052604081206001810154909167ffffffffffffffff909116900361016e5760405162461bcd60e51b815260206004820152601960248201527f536f6c697672654b65726e656c3a20756e6b6e6f776e2069640000000000000060448201526064015b60405180910390fd5b60028101546001600160a01b031633146101ca5760405162461bcd60e51b815260206004820152601d60248201527f536f6c697672654b65726e656c3a206e6f7420636f6e74726f6c6c65720000006044820152606401610165565b80548282556001820180546fffffffffffffffff00000000000000001916600160401b4267ffffffffffffffff1602179055604080518281526020810185905285917f962373312b405c7836c4f6b1e54a0e241165284937c72af6eb618a1581fa7c1b910160405180910390a250505050565b5f828152602081905260409020600181015467ffffffffffffffff16156102b05760405162461bcd60e51b815260206004820152602160248201527f536f6c697672654b65726e656c3a20616c7265616479207265676973746572656044820152601960fa1b6064820152608401610165565b6040805160808101825283815267ffffffffffffffff428116602080840182815284860192835233606086018181525f8b815280855288902096518755915160018701805495518716600160401b026fffffffffffffffffffffffffffffffff199096169190961617939093179093559151600290930180546001600160a01b039094166001600160a01b0319909416939093179092559151848152909185917f4525bc2d478a568d12170c6b46ab879fb59f8a1c447b8574914c239a593ef9cf910160405180910390a3505050565b5f5f60408385031215610391575f5ffd5b50508035926020909101359150565b5f602082840312156103b0575f5ffd5b503591905056fea26469706673582212200fe531f89fe6f3d320504c0f054ae3f4dd508ad51c34fcbc69b566a2ac0244ff64736f6c634300081c0033",
  "linkReferences": {},
  "deployedLinkReferences": {},
  "immutableReferences": {},
  "inputSourceName": "project/contracts/SolivreKernel.sol",
  "buildInfoId": "solc-0_8_28-b1e98aabb535ff129be8340a6b741d3a9f2f0983"
}